{
  "contractName": "CryptoValentine",
  "abi": [
    {
      "constant": true,
      "inputs": [],
      "name": "mostSent",
      "outputs": [
        {
          "name": "",
          "type": "uint256"
        }
      ],
      "payable": false,
      "stateMutability": "view",
      "type": "function"
    },
    {
      "constant": true,
      "inputs": [],
      "name": "owner",
      "outputs": [
        {
          "name": "",
          "type": "address"
        }
      ],
      "payable": false,
      "stateMutability": "view",
      "type": "function"
    },
    {
      "constant": true,
      "inputs": [],
      "name": "currentText",
      "outputs": [
        {
          "name": "",
          "type": "bytes32"
        }
      ],
      "payable": false,
      "stateMutability": "view",
      "type": "function"
    },
    {
      "payable": true,
      "stateMutability": "payable",
      "type": "fallback"
    },
    {
      "constant": false,
      "inputs": [
        {
          "name": "newText",
          "type": "bytes32"
        }
      ],
      "name": "setText",
      "outputs": [
        {
          "name": "",
          "type": "bool"
        }
      ],
      "payable": true,
      "stateMutability": "payable",
      "type": "function"
    },
    {
      "constant": true,
      "inputs": [],
      "name": "getNumberOfLoveLocks",
      "outputs": [
        {
          "name": "",
          "type": "uint256"
        }
      ],
      "payable": false,
      "stateMutability": "view",
      "type": "function"
    },
    {
      "constant": true,
      "inputs": [],
      "name": "getLoveLocks",
      "outputs": [
        {
          "name": "",
          "type": "bytes32[]"
        }
      ],
      "payable": false,
      "stateMutability": "view",
      "type": "function"
    },
    {
      "constant": false,
      "inputs": [],
      "name": "withdrawEther",
      "outputs": [],
      "payable": false,
      "stateMutability": "nonpayable",
      "type": "function"
    }
  ],
  "bytecode": "0x6060604052600080557f577269746520646f776e20796f7572206d65737361676521000000000000000060019060001916905533600260006101000a81548173ffffffffffffffffffffffffffffffffffffffff021916908373ffffffffffffffffffffffffffffffffffffffff1602179055506020600355341561008357600080fd5b6105a6806100926000396000f300606060405260043610610083576000357c0100000000000000000000000000000000000000000000000000000000900463ffffffff1680636886bf1c146100af5780637362377b146100d85780638da5cb5b146100ed578063919ad6df1461014257806395980858146101ac578063a2783567146101dd578063ceb45f5814610206575b6100ac7f44656661756c742074657874210000000000000000000000000000000000000061023a565b50005b34156100ba57600080fd5b6100c2610313565b6040518082815260200191505060405180910390f35b34156100e357600080fd5b6100eb610319565b005b34156100f857600080fd5b6101006103f0565b604051808273ffffffffffffffffffffffffffffffffffffffff1673ffffffffffffffffffffffffffffffffffffffff16815260200191505060405180910390f35b341561014d57600080fd5b610155610416565b6040518080602001828103825283818151815260200191508051906020019060200280838360005b8381101561019857808201518184015260208101905061017d565b505050509050019250505060405180910390f35b34156101b757600080fd5b6101bf6104e9565b60405180826000191660001916815260200191505060405180910390f35b34156101e857600080fd5b6101f06104ef565b6040518082815260200191505060405180910390f35b61022060048080356000191690602001909190505061023a565b604051808215151515815260200191505060405180910390f35b60006102446104fc565b6000543411801561025a5750600354602060ff16105b156102c8578260018160001916905550346000819055508281600001906000191690816000191681525050600480548060010182816102999190610513565b91600052602060002090016000839091909150600082015181600001906000191690555050506001915061030d565b3373ffffffffffffffffffffffffffffffffffffffff166108fc349081150290604051600060405180830381858888f19350505050151561030857600080fd5b600091505b50919050565b60005481565b600260009054906101000a900473ffffffffffffffffffffffffffffffffffffffff1673ffffffffffffffffffffffffffffffffffffffff163373ffffffffffffffffffffffffffffffffffffffff1614151561037557600080fd5b600260009054906101000a900473ffffffffffffffffffffffffffffffffffffffff1673ffffffffffffffffffffffffffffffffffffffff166108fc3073ffffffffffffffffffffffffffffffffffffffff16319081150290604051600060405180830381858888f1935050505015156103ee57600080fd5b565b600260009054906101000a900473ffffffffffffffffffffffffffffffffffffffff1681565b61041e61053f565b600061042861053f565b60006104326104fc565b6004805490509350836040518059106104485750595b90808252806020026020018201604052509250600091505b6004805490508210156104df5760048281548110151561047c57fe5b90600052602060002090016020604051908101604052908160008201546000191660001916815250509050806000015183838151811015156104ba57fe5b9060200190602002019060001916908160001916815250508180600101925050610460565b8294505050505090565b60015481565b6000600480549050905090565b602060405190810160405280600080191681525090565b81548183558181151161053a578183600052602060002091820191016105399190610553565b5b505050565b602060405190810160405280600081525090565b61057791905b808211156105735760008082016000905550600101610559565b5090565b905600a165627a7a72305820af29c6b3b55058b868b2a5cc13491ce3eff256c78a1033308ee94374ffc26f600029",
  "source": "pragma solidity ^0.4.18;\n\ncontract CryptoValentine {\n    uint public mostSent = 0;\n    bytes32 public currentText = bytes32(\"Write down your message!\");\n    address public owner = msg.sender;\n    uint private maxLength = 32;\n    \n    struct LoveLock {\n        // Array of strings not possible in Soldity \n        // need other option because bytes32 is just to short\n        // cut them in multiple bytes32 is possible but bad solution... \n        bytes32 message;\n    }\n\n    LoveLock[] loveLocks;\n\n    function setText(bytes32 newText) public payable returns (bool) {\n        if (msg.value > mostSent && newText.length < maxLength) {\n            currentText = newText;\n            mostSent = msg.value;\n            LoveLock memory newLoveLock;\n            newLoveLock.message = newText;\n            loveLocks.push(newLoveLock);\n            return true;\n        } else {\n            msg.sender.transfer(msg.value);\n            return false;\n        }\n    }\n\n    function getNumberOfLoveLocks() public constant returns (uint) {\n        return (loveLocks.length);\n    }\n\n    function getLoveLocks() public constant returns (bytes32[]) {\n        uint length = loveLocks.length;\n        bytes32[] memory messages = new bytes32[](length);\n\n        for (uint i = 0; i < loveLocks.length; i++) {\n\n            LoveLock memory currentLoveLock;\n            currentLoveLock = loveLocks[i];\n\n            messages[i] = currentLoveLock.message;\n        }\n        return (messages);\n    }\n\n    function withdrawEther() external {\n        require(msg.sender == owner);\n        owner.transfer(this.balance);\n    }\n\n    function () public payable {\n        setText(\"Default text!\");\n    }\n}\n",
  "sourcePath": "/Users/Johannes/Documents/randomProjects/cryptoLoveReact2/contracts/CryptoValentine.sol",
  "compiler": {
    "name": "solc",
    "version": "0.4.19+commit.c4cbbb05.Emscripten.clang"
  },
  "schemaVersion": "2.0.0",
  "updatedAt": "2018-04-02T17:16:34.245Z"
}